:020000040800F2
:10000000005000200D140008F9110008FF1100082D
:10001000051200080B120008111200080000000071
:10002000000000000000000000000000171200089F
:1000300023120008000000002F120008950C000891
:1000400055140008551400085514000855140008EC
:10005000551400083B1200085514000855140008F8
:1000600055140008551400085514000855140008CC
:1000700055140008551400085514000855140008BC
:1000800055140008551400085514000855140008AC
:10009000551400085514000855140008551400089C
:1000A000551400085514000855140008551400088C
:1000B000551400084912000855140008551400088A
:1000C000551400085514000855140008551400086C
:1000D000551400085D120008551400085514000856
:1000E00071120008551400085514000800000000A3
:1000F0000000000000000000000000000000000000
:0C01000000000000000000005FF808F1A3
:1001100010B5054C237833B9044B13B10448AFF341
:1001200000800123237010BDE001002000000000CA
:100130006483000808B5034B1BB103490348AFF3C0
:10014000008008BD00000000E40100206483000876
:10015000034613F8012B002AFBD1181A0138704707
:1001600081F0004102E000BF83F0004330B54FEA68
:1001700041044FEA430594EA050F08BF90EA020FD5
:100180001FBF54EA000C55EA020C7FEA645C7FEA68
:10019000655C00F0E2804FEA5454D4EB5555B8BF8B
:1001A0006D420CDD2C4480EA020281EA030382EAFC
:1001B000000083EA010180EA020281EA0303362D8E
:1001C00088BF30BD11F0004F4FEA01314FF4801C61
:1001D0004CEA113102D0404261EB410113F0004F73
:1001E0004FEA03334CEA133302D0524263EB43032A
:1001F00094EA050F00F0A780A4F10104D5F1200EC8
:100200000DDB02FA0EFC22FA05F2801841F1000122
:1002100003FA0EF2801843FA05F359410EE0A5F1F6
:1002200020050EF1200E012A03FA0EFC28BF4CF027
:10023000020C43FA05F3C01851EBE37101F00045DD
:1002400007D54FF0000EDCF1000C7EEB00006EEBEA
:100250000101B1F5801F1BD3B1F5001F0CD3490874
:100260005FEA30004FEA3C0C04F101044FEA4452CB
:1002700012F5800F80F09A80BCF1004F08BF5FEA52
:10028000500C50F1000041EB045141EA050130BD32
:100290005FEA4C0C404141EB0101013C28BFB1F544
:1002A000801FE9D291F0000F04BF01460020B1FA8F
:1002B00081F308BF2033A3F10B03B3F120020CDA62
:1002C0000C3208DD02F1140CC2F10C0201FA0CF040
:1002D00021FA02F10CE002F11402D8BFC2F1200CA5
:1002E00001FA02F120FA0CFCDCBF41EA0C0190405B
:1002F000E41AA2BF01EB0451294330BD6FEA0404A4
:100300001F3C1CDA0C340EDC04F11404C4F120028E
:1003100020FA04F001FA02F340EA030021FA04F3A0
:1003200045EA030130BDC4F10C04C4F1200220FAF7
:1003300002F001FA04F340EA0300294630BD21FA35
:1003400004F0294630BD94F0000F83F4801306BFFB
:1003500081F480110134013D4EE77FEA645C18BFEF
:100360007FEA655C29D094EA050F08BF90EA020F86
:1003700005D054EA000C04BF1946104630BD91EA7E
:10038000030F1EBF0021002030BD5FEA545C05D181
:100390004000494128BF41F0004130BD14F58004C0
:1003A0003CBF01F5801130BD01F0004545F0FE4134
:1003B00041F470014FF0000030BD7FEA645C1ABF69
:1003C000194610467FEA655C1CBF0B46024650EAA0
:1003D000013406BF52EA033591EA030F41F40021CC
:1003E00030BD00BF90F0000F04BF0021704730B552
:1003F0004FF4806404F132044FF000054FF0000127
:1004000050E700BF90F0000F04BF0021704730B5E7
:100410004FF4806404F1320410F0004548BF4042BC
:100420004FF000013EE700BF42004FEAE2014FEA11
:1004300031014FEA02701FBF12F07F4393F07F4FEC
:1004400081F06051704732F07F4208BF704793F0EF
:100450007F4F04BF41F40021704730B54FF4607402
:1004600001F0004521F000411CE700BF50EA010205
:1004700008BF704730B54FF000050AE050EA0102AE
:1004800008BF704730B511F0004502D5404261EB1E
:1004900041014FF4806404F132045FEA915C3FF45F
:1004A000D8AE4FF003025FEADC0C18BF03325FEAFC
:1004B000DC0C18BF033202EBDC02C2F1200300FAAD
:1004C00003FC20FA02F001FA03FE40EA0E0021FAD2
:1004D00002F11444BDE600BF70B54FF0FF0C4CF4C0
:1004E000E06C1CEA11541DBF1CEA135594EA0C0F72
:1004F00095EA0C0F00F0DEF82C4481EA030621EAAD
:100500004C5123EA4C5350EA013518BF52EA0335E7
:1005100041F4801143F4801338D0A0FB02CE4FF099
:100520000005E1FB02E506F00042E0FB03E54FF0C9
:100530000006E1FB03569CF0000F18BF4EF0010EC1
:10054000A4F1FF04B6F5007F64F5407404D25FEABD
:100550004E0E6D4146EB060642EAC62141EA555170
:100560004FEAC52040EA5E504FEACE2EB4F1FD0CB2
:1005700088BFBCF5E06F1ED8BEF1004F08BF5FEA30
:10058000500E50F1000041EB045170BD06F00046E2
:1005900046EA010140EA020081EA0301B4EB5C048F
:1005A000C2BFD4EB0C0541EA045170BD41F4801187
:1005B0004FF0000E013C00F3AB8014F1360FDEBFAC
:1005C000002001F0004170BDC4F10004203C35DA88
:1005D0000C341BDC04F11404C4F1200500FA05F30B
:1005E00020FA04F001FA05F240EA020001F00042AC
:1005F00021F0004110EBD37021FA04F642EB060122
:100600005EEA430E08BF20EAD37070BDC4F10C044B
:10061000C4F1200500FA04F320FA05F001FA04F20F
:1006200040EA020001F0004110EBD37041F10001FB
:100630005EEA430E08BF20EAD37070BDC4F1200506
:1006400000FA05F24EEA020E20FA04F301FA05F26E
:1006500043EA020321FA04F001F0004121FA04F216
:1006600020EA020000EBD3705EEA430E08BF20EAE6
:10067000D37070BD94F0000F0FD101F00046400020
:1006800041EB010111F4801F08BF013CF7D041EAA2
:10069000060195F0000F18BF704703F000465200A6
:1006A00043EB030313F4801F08BF013DF7D043EA77
:1006B0000603704794EA0C0F0CEA135518BF95EA2D
:1006C0000C0F0CD050EA410618BF52EA4306D1D1B4
:1006D00081EA030101F000414FF0000070BD50EAD3
:1006E000410606BF1046194652EA430619D094EA5D
:1006F0000C0F02D150EA013613D195EA0C0F05D147
:1007000052EA03361CBF104619460AD181EA03019A
:1007100001F0004141F0FE4141F470014FF0000052
:1007200070BD41F0FE4141F4780170BD70B54FF0ED
:10073000FF0C4CF4E06C1CEA11541DBF1CEA13556D
:1007400094EA0C0F95EA0C0F00F0A7F8A4EB05044F
:1007500081EA030E52EA03354FEA013100F0888046
:100760004FEA03334FF0805545EA131343EA12630F
:100770004FEA022245EA111545EA10654FEA0026C4
:100780000EF000419D4208BF964244F1FD0404F57D
:10079000407402D25B084FEA3202B61A65EB0305D9
:1007A0005B084FEA32024FF480104FF4002CB6EB96
:1007B000020E75EB030E22BFB61A754640EA0C0016
:1007C0005B084FEA3202B6EB020E75EB030E22BF56
:1007D000B61A754640EA5C005B084FEA3202B6EB97
:1007E000020E75EB030E22BFB61A754640EA9C0056
:1007F0005B084FEA3202B6EB020E75EB030E22BF26
:10080000B61A754640EADC0055EA060E18D04FEAE3
:10081000051545EA16754FEA06164FEAC30343EA83
:1008200052734FEAC2025FEA1C1CC0D111F4801F50
:100830000BD141EA00014FF000004FF0004CB6E749
:1008400011F4801F04BF01430020B4F1FD0C88BFE8
:10085000BCF5E06F3FF6AFAEB5EB030C04BFB6EBF3
:10086000020C5FEA500C50F1000041EB045170BDE6
:100870000EF0004E4EEA113114EB5C04C2BFD4EB13
:100880000C0541EA045170BD41F480114FF0000E97
:10089000013C90E645EA060E8DE60CEA135594EA13
:1008A0000C0F08BF95EA0C0F3FF43BAF94EA0C0F16
:1008B0000AD150EA01347FF434AF95EA0C0F7FF48B
:1008C00025AF104619462CE795EA0C0F06D152EADF
:1008D00003353FF4FDAE1046194622E750EA4106C3
:1008E00018BF52EA43067FF4C5AE50EA41047FF4D4
:1008F0000DAF52EA43057FF4EBAE12E74FF0FF3C39
:1009000006E000BF4FF0010C02E000BF4FF0010C09
:100910004DF804CD4FEA410C7FEA6C5C4FEA430C82
:1009200018BF7FEA6C5C1BD001B050EA410C0CBFD1
:1009300052EA430C91EA030F02BF90EA020F002033
:10094000704710F1000F91EA030F58BF994208BF9A
:1009500090422CBFD8176FEAE37040F00100704757
:100960004FEA410C7FEA6C5C02D150EA013C07D1AE
:100970004FEA430C7FEA6C5CD6D152EA033CD3D0F9
:100980005DF8040B704700BF8446104662468C46F3
:100990001946634600E000BF01B5FFF7B7FF002826
:1009A00048BF10F1000F01BD4DF808EDFFF7F4FF4F
:1009B0000CBF012000205DF808FB00BF4DF808EDDA
:1009C000FFF7EAFF34BF012000205DF808FB00BFFD
:1009D0004DF808EDFFF7E0FF94BF012000205DF81F
:1009E00008FB00BF4DF808EDFFF7CEFF94BF0120D4
:1009F00000205DF808FB00BF4DF808EDFFF7C4FFCD
:100A000034BF012000205DF808FB00BF4FEA410C15
:100A10007FEA6C5C02D150EA013C0AD14FEA430CF8
:100A20007FEA6C5C02D152EA033C02D14FF0000035
:100A300070474FF0010070474FEA410212F5001273
:100A400015D211D56FF47873B3EB625212D94FEA15
:100A5000C12343F0004343EA505311F0004F23FAFF
:100A600002F018BF404270474FF00000704750EA54
:100A7000013005D111F0004008BF6FF00040704711
:100A80004FF00000704700BF4A0011D212F500126B
:100A900011D20DD56FF47873B3EB62520ED44FEAD6
:100AA000C12343F0004343EA505323FA02F0704756
:100AB0004FF00000704750EA013002D14FF0FF3094
:100AC00070474FF0000070474FEA4102B2F1E04337
:100AD00024BFB3F5001CDCF1FE5C0DD901F0004C25
:100AE0004FEAC0024CEA5070B2F1004F40EB830075
:100AF00008BF20F00100704711F0804F21D113F1A1
:100B00003872BCBF01F00040704741F480114FEAD9
:100B10005252C2F11802C2F1200C10FA0CF320FA62
:100B200002F018BF40F001004FEAC1234FEAD3237F
:100B300003FA0CFC40EA0C0023FA02F34FEA4303E9
:100B4000CCE77FEA625307D150EA01331EBF4FF072
:100B5000FE4040F44000704701F0004040F0FE408D
:100B600040F40000704700BF38B505460C4600222F
:100B7000002328462146FFF721FF28B928462146B1
:100B8000BDE8384000F00AB8284604F1004100F002
:100B900005F8404261EB410138BD00BFD0B50022ED
:100BA0000B4B06460F46FFF797FCFFF76DFF044619
:100BB000FFF718FC0022074BFFF78EFC02460B469E
:100BC00030463946FFF7D0FAFFF75EFF2146D0BD29
:100BD0000000F03D0000F04180B483B000AF034658
:100BE0003960FB7197F90730002B0ADB3B68DAB2FA
:100BF0000C4997F907301201D2B20B4483F8002355
:100C00000AE03B68DAB20849FB7903F00F03043BC2
:100C10001201D2B20B441A7600BF0C37BD4680BC1D
:100C2000704700BF00E100E000ED00E080B582B059
:100C300000AF78607B68013BB3F1807F01D3012373
:100C40000FE00A4A7B68013B53600F214FF0FF30F1
:100C5000FFF7C2FF054B00229A60044B07221A607F
:100C6000002318460837BD4680BD00BF10E000E0F5
:100C700080B582B000AF7860391D4FF0FF3301229C
:100C8000034802F0F6F97B6818460837BD4680BD78
:100C9000FC01002080B400AF0C4B1B88002B06D059
:100CA0000A4B1B88013B9AB2084B1A8009E0084B9B
:100CB0001B88002B05D0064B1B88013B9AB2044BC6
:100CC0001A8000BFBD4680BC704700BF880200206C
:100CD0008A02002080B483B000AF0346FB80074A3D
:100CE000FB88138000BF054B1B88002BFBD100BF86
:100CF00000BF0C37BD4680BC704700BF8802002093
:100D000080B582B000AF00F0EDFB00F0A5FB254BF5
:100D10001B68254AA2FB03239B091846FFF786FFA1
:100D200000F04CF800F0EAF800F084F800F0BCF8AD
:100D30000023FB71FB799BB2184600F02DF910E0FF
:100D40001A4B1B88002B0CD1FB79002B09D00023F8
:100D5000FB71FB799BB2184600F01EF9144803F0B2
:100D600039FD4FF48051134800F01AFF0346012B60
:100D7000E6D04FF49670FFF7ADFF0F4803F02AFD61
:100D80000A4B42F210721A80FB791933FB71FB791E
:100D9000642B01D90023FB71FB799BB2184600F04C
:100DA000FBF8DEE700000020D34D62108A0200202D
:100DB00080830008000C01409483000880B590B047
:100DC00000AF07F1180328220021184602F006FEA2
:100DD0003B1D00221A605A609A60DA601A61012392
:100DE000BB614FF48033FB6100237B6307F1180381
:100DF000184600F00FFF0346002B01D000F010F959
:100E00000F237B600123BB600023FB604FF48063F2
:100E10003B6100237B613B1D0021184601F07CF9FA
:100E20000346002B01D000F0FBF800BF4037BD4661
:100E300080BD000080B582B000AF3B4600221A6042
:100E40005A60174B174A1A60154B08225A60144B08
:100E500000229A60124BFF22DA60114B00221A61C5
:100E60000F4B00229A610E4801F0EEFA0346002B68
:100E700001D000F0D5F820233B6000237B603B4687
:100E80001946074802F038F80346002B01D000F05D
:100E9000C7F8034800F02AF900BF0837BD4680BDF7
:100EA000400200200004004080B500AF114B124A00
:100EB0001A60104B4FF4E1325A600E4B00229A60D8
:100EC0000C4B0022DA600B4B00221A61094B0C22FA
:100ED0005A61084B00229A61064B0022DA610548EC
:100EE00002F07AF80346002B01D000F099F800BF19
:100EF00080BD00BFFC0100200038014080B588B0F3
:100F000000AF07F1100300221A605A609A60DA609D
:100F10001E4B9B691D4A43F0200393611B4B9B6949
:100F200003F02003FB60FB68184B9B69174A43F0F2
:100F300004039361154B9B6903F00403BB60BB681A
:100F4000124B9B69114A43F0080393610F4B9B6955
:100F500003F008037B607B684FF480533B610C4BCC
:100F60007B610123BB6107F110031946094800F0BA
:100F700093FC00220021282000F0A7FB282000F08D
:100F8000C0FB00BF2037BD4680BD00BF001002403F
:100F900000001110000C014080B58AB000AF03467C
:100FA000FB800C21184801F041FB6023FB60FB88AB
:100FB000DB01164A82FB03125211DB17D31A3B6185
:100FC00002237B610023FB6107F10C030C2219460D
:100FD0000D4801F097FC0C210B4801F085FAFB88C5
:100FE000002B03D10A4803F0F5FB08E0094803F0A1
:100FF000F1FBFB88084A1946084803F065FB00BF6F
:101000002837BD4680BD00BF400200201F85EB5140
:10101000B0830008BC830008C8830008D0830008A0
:1010200080B400AF72B600BFFEE7000080B584B0A8
:1010300000AF194B9B69184A43F001039361164BAB
:101040009B6903F00103BB60BB68134BDB69124A69
:1010500043F08053D361104BDB6903F080537B6016
:101060007B6800220021052000F02FFB052000F006
:1010700048FB0A4B5B68FB60FB6823F0E063FB60A6
:10108000FB6843F00073FB60044AFB68536000BFD9
:101090001037BD4680BD00BF001002400000014077
:1010A00080B584B000AF78607B681B680D4A9342BE
:1010B00013D10D4BDB690C4A43F00203D3610A4B99
:1010C000DB6903F00203FB60FB68002200211D20A6
:1010D00000F0FBFA1D2000F014FB00BF1037BD46E6
:1010E00080BD00BF000400400010024080B588B001
:1010F00000AF786007F1100300221A605A609A600E
:10110000DA607B681B680F4A934217D10E4B9B69CC
:101110000D4A43F0080393610B4B9B6903F00803EE
:10112000FB60FB6802233B6102237B610223FB61BE
:1011300007F110031946054800F0AEFB00BF203749
:10114000BD4680BD0004004000100240000C01407C
:1011500080B588B000AF786007F1100300221A60F4
:101160005A609A60DA607B681B68204A934239D1E2
:101170001F4B9B691E4A43F4804393611C4B9B6940
:1011800003F48043FB60FB68194B9B69184A43F0EA
:1011900004039361164B9B6903F00403BB60BB68B7
:1011A0004FF400733B6102237B610323FB6107F172
:1011B000100319460F4800F06FFB4FF480633B614A
:1011C00000237B610023BB6107F110031946094826
:1011D00000F062FB00220021252000F076FA252095
:1011E00000F08FFA00BF2037BD4680BD00380140B7
:1011F000001002400008014080B400AFFEE780B458
:1012000000AFFEE780B400AFFEE780B400AFFEE7BA
:1012100080B400AFFEE780B400AF00BFBD4680BC25
:10122000704780B400AF00BFBD4680BC704780B43B
:1012300000AF00BFBD4680BC704780B400AF00BFA8
:10124000BD4680BC7047000080B500AF024801F089
:1012500051FA00BF80BD00BF4002002080B500AF42
:10126000024801F099FF00BF80BD00BFFC010020D3
:1012700080B500AF4FF4805000F0AAFC00BF80BDE5
:1012800080B400AF01231846BD4680BC704780B5CE
:1012900082B000AF7860396002F076FB0346162218
:1012A0001A604FF0FF3318460837BD4680BD80B541
:1012B00082B000AF78604FF0FF317868FFF7E7FF4A
:1012C000FEE780B586B000AFF860B9607A600023B1
:1012D0007B610AE0AFF300800146BB685A1CBA602C
:1012E000CAB21A707B6901337B617A697B689A4262
:1012F000F0DB7B6818461837BD4680BD80B586B0E8
:1013000000AFF860B9607A6000237B6109E0BB68D8
:101310005A1CBA601B781846FFF7AAFC7B69013398
:101320007B617A697B689A42F1DB7B6818461837E3
:10133000BD4680BD80B483B000AF78604FF0FF330E
:1013400018460C37BD4680BC704780B483B000AFF0
:10135000786039603B684FF400525A6000231846A9
:101360000C37BD4680BC704780B483B000AF786056
:10137000012318460C37BD4680BC704780B485B049
:1013800000AFF860B9607A60002318461437BD4694
:1013900080BC704780B586B000AF7860144A154BAA
:1013A000D31A7B617B693B61134B1B68002B02D115
:1013B000114B124A1A60104B1A687B6813443A6941
:1013C0009A4207D202F0E0FA03460C221A604FF06C
:1013D000FF3309E0084B1B68FB60074B1A687B680A
:1013E0001344054A1360FB6818461837BD4680BD94
:1013F00000500020000400008C020020A802002001
:1014000080B400AF00BFBD4680BC70470C480D499A
:101410000D4A002302E0D458C4500433C4188C424F
:10142000F9D30A4A0A4C002301E013600432A242B5
:10143000FBD3FFF7E5FF02F0ADFAFFF761FC704761
:1014400000000020E0010020CC880008E00100201E
:10145000A4020020FEE7000080B500AF084B1B6827
:10146000074A43F010031360032000F023F90F2014
:1014700000F008F8FFF7DAFD0023184680BD00BF32
:101480000020024080B582B000AF7860124B1A682D
:10149000124B1B7819464FF47A73B3FBF1F3B2FB8E
:1014A000F3F3184600F03BF90346002B01D001236B
:1014B0000EE07B680F2B0AD8002279684FF0FF30CE
:1014C00000F003F9064A7B681360002300E0012363
:1014D00018460837BD4680BD0000002008000020E7
:1014E0000400002080B400AF054B1B781A46054B62
:1014F0001B681344034A136000BFBD4680BC70479D
:10150000080000209002002080B400AF024B1B684E
:101510001846BD4680BC70479002002080B485B05C
:1015200000AF78607B6803F00703FB600C4BDB685F
:10153000BB60BA684FF6FF031340BB60FB681A023A
:10154000BB68134343F0BF6343F40033BB60044AFA
:10155000BB68D36000BF1437BD4680BC704700BF76
:1015600000ED00E080B400AF044BDB681B0A03F021
:1015700007031846BD4680BC704700BF00ED00E081
:1015800080B483B000AF0346FB7197F90730002B9E
:101590000BDBFB7903F01F02064997F907305B0963
:1015A000012000FA02F241F8232000BF0C37BD46AB
:1015B00080BC704700E100E080B483B000AF034618
:1015C0003960FB7197F90730002B0ADB3B68DAB210
:1015D0000C4997F907301201D2B20B4483F800236B
:1015E0000AE03B68DAB20849FB7903F00F03043BD9
:1015F0001201D2B20B441A7600BF0C37BD4680BC34
:10160000704700BF00E100E000ED00E080B489B069
:1016100000AFF860B9607A60FB6803F00703FB6114
:10162000FB69C3F10703042B28BF0423BB61FB69DB
:101630000433062B02D9FB69033B00E000237B61E6
:101640004FF0FF32BB6902FA03F3DA43BB681A407A
:101650007B699A404FF0FF317B6901FA03F3D9436C
:101660007B680B40134318462437BD4680BC704747
:1016700080B582B000AF78607B68013BB3F1807FBA
:1016800001D301230FE00A4A7B68013B53600F211D
:101690004FF0FF30FFF790FF054B00229A60044B9C
:1016A00007221A60002318460837BD4680BD00BFD8
:1016B00010E000E080B582B000AF78607868FFF796
:1016C0002DFF00BF0837BD4680BD80B586B000AF96
:1016D0000346B9607A60FB7300237B61FFF742FF2A
:1016E00078617A68B9687869FFF790FF024697F9E0
:1016F0000F3011461846FFF75FFF00BF1837BD4691
:1017000080BD80B582B000AF0346FB7197F907300A
:101710001846FFF735FF00BF0837BD4680BD80B5CE
:1017200082B000AF78607868FFF7A2FF03461846E2
:101730000837BD4680BD80B485B000AF7860002317
:10174000FB737B6893F82130022B08D07B6804225E
:101750009A637B68002283F82020012320E07B68C5
:101760001B681A687B681B6822F00E021A607B688F
:101770001B681A687B681B6822F001021A607B688C
:101780001A6C7B68DB6B012101FA02F25A607B68FC
:10179000012283F821207B68002283F82020FB7B34
:1017A00018461437BD4680BC7047000080B584B031
:1017B00000AF78600023FB737B6893F82130022B25
:1017C00005D07B6804229A630123FB7351E07B6898
:1017D0001B681A687B681B6822F00E021A607B681F
:1017E0001B681A687B681B6822F001021A607B681C
:1017F0001B68224A934229D07B681B68204A934287
:1018000022D07B681B681F4A93421AD07B681B68F2
:101810001D4A934212D07B681B681C4A93420AD02F
:101820007B681B681A4A934202D14FF480130EE082
:101830004FF080730BE04FF4803308E04FF4805397
:1018400005E04FF4807302E0102300E00123114A09
:1018500053607B68012283F821207B68002283F893
:1018600020207B685B6B002B03D07B685B6B786808
:101870009847FB7B18461037BD4680BD08000240E4
:101880001C00024030000240440002405800024068
:101890006C0002400000024080B48BB000AF786062
:1018A000396000237B6200233B6269E101227B6A8D
:1018B00002FA03F3FB613B681B68FA691340BB61E2
:1018C000BA69FB699A4240F058813B685B689A4A62
:1018D00093425ED0984A934275D8984A934258D022
:1018E000964A93426FD8964A934252D0944A934272
:1018F00069D8944A93424CD0924A934263D8924A10
:10190000934246D0904A93425DD8122B2AD8122B8C
:1019100059D801A252F823F0931900086D19000854
:101920007F190008C1190008C7190008C719000865
:10193000C7190008C7190008C7190008C719000807
:10194000C7190008C7190008C7190008C7190008F7
:10195000C7190008C7190008C71900087519000839
:1019600089190008794A934213D02CE03B68DB6860
:101970003B6229E03B68DB6804333B6224E03B6860
:10198000DB6808333B621FE03B68DB680C333B627B
:101990001AE03B689B68002B02D104233B6213E0F2
:1019A0003B689B68012B05D108233B627B68FA6981
:1019B0001A6109E008233B627B68FA695A6103E017
:1019C00000233B6200E000BFBB69FF2B01D87B68AE
:1019D00001E07B6804337B61BB69FF2B02D87B6A23
:1019E0009B0002E07B6A083B9B003B617B691A68B5
:1019F0000F213B6901FA03F3DB431A40396A3B6963
:101A000001FA03F31A437B691A603B685B6803F0D1
:101A10008053002B00F0B1804D4B9B694C4A43F042
:101A2000010393614A4B9B6903F00103BB60BB68F0
:101A3000484A7B6A9B08023352F82330FB607B6A7A
:101A400003F003039B000F2202FA03F3DB43FA685F
:101A50001340FB607B68404A934213D07B683F4A47
:101A600093420DD07B683E4A934207D07B683D4A43
:101A7000934201D1032306E0042304E0022302E0A1
:101A8000012300E000237A6A02F0030292009340EF
:101A9000FA681343FB602F497B6A9B080233FA689C
:101AA00041F823203B685B6803F48033002B06D0A9
:101AB0002D4B1A682C49BB6913430B6006E02A4B77
:101AC0001A68BB69DB43284913400B603B685B68BD
:101AD00003F40033002B06D0234B5A682249BB691C
:101AE00013434B6006E0204B5A68BB69DB431E4939
:101AF00013404B603B685B6803F48013002B06D0F7
:101B0000194B9A681849BB6913438B6006E0164B62
:101B10009A68BB69DB43144913408B603B685B6880
:101B200003F40013002B21D00F4BDA680E49BB6978
:101B30001343CB6021E000BF0000321000003110E1
:101B400000002210000021100000121000001110EF
:101B5000001002400000014000080140000C01405C
:101B60000010014000140140000401400B4BDA68F2
:101B7000BB69DB4309491340CB607B6A01337B625D
:101B80003B681A687B6A22FA03F3002B7FF48EAE5F
:101B900000BF00BF2C37BD4680BC70470004014029
:101BA00080B485B000AF78600B467B807B689A6814
:101BB0007B881340002B02D00123FB7301E000233C
:101BC000FB73FB7B18461437BD4680BC7047000092
:101BD00080B582B000AF0346FB80084B5A69FB8892
:101BE0001340002B06D0054AFB885361FB8818463A
:101BF00000F006F800BF0837BD4680BD0004014074
:101C000080B483B000AF0346FB8000BF0C37BD46F5
:101C100080BC704780B586B000AF78607B68002BD1
:101C200001D1012372E27B681B6803F00103002BE2
:101C300000F08780924B5B6803F00C03042B0CD000
:101C40008F4B5B6803F00C03082B12D18C4B5B6845
:101C500003F48033B3F5803F0BD1894B1B6803F449
:101C60000033002B6CD07B685B68002B68D10123AC
:101C70004CE27B685B68B3F5803F06D1804B1B6804
:101C80007F4A43F4803313602EE07B685B68002B4F
:101C90000CD17B4B1B687A4A23F480331360784B5A
:101CA0001B68774A23F4802313601DE07B685B6820
:101CB000B3F5A02F0CD1724B1B68714A43F48023FB
:101CC00013606F4B1B686E4A43F4803313600BE064
:101CD0006B4B1B686A4A23F480331360684B1B68A4
:101CE000674A23F4802313607B685B68002B13D062
:101CF000FFF70AFC386108E0FFF706FC02463B6983
:101D0000D31A642B01D9032300E25D4B1B6803F453
:101D10000033002BF0D014E0FFF7F6FB386108E049
:101D2000FFF7F2FB02463B69D31A642B01D9032368
:101D3000ECE1534B1B6803F40033002BF0D100E0BF
:101D400000BF7B681B6803F00203002B63D04C4B81
:101D50005B6803F00C03002B0BD0494B5B6803F06E
:101D60000C03082B1CD1464B5B6803F48033002B1B
:101D700016D1434B1B6803F00203002B05D07B6890
:101D80001B69012B01D00123C0E13D4B1B6823F0EF
:101D9000F8027B685B69DB00394913430B603AE06A
:101DA0007B681B69002B20D0364B01221A60FFF79D
:101DB000ABFB386108E0FFF7A7FB02463B69D31A8B
:101DC000022B01D90323A1E12D4B1B6803F0020371
:101DD000002BF0D02A4B1B6823F0F8027B685B696C
:101DE000DB00274913430B6015E0264B00221A60E5
:101DF000FFF78AFB386108E0FFF786FB02463B6984
:101E0000D31A022B01D9032380E11D4B1B6803F079
:101E10000203002BF0D17B681B6803F00803002B42
:101E20003AD07B689B69002B19D0174B01221A60AE
:101E3000FFF76AFB386108E0FFF766FB02463B6983
:101E4000D31A022B01D9032360E10D4B5B6A03F027
:101E50000203002BF0D0012000F0D8FA1CE00A4B5E
:101E600000221A60FFF750FB38610FE0FFF74CFBD0
:101E700002463B69D31A022B08D9032346E100BF6F
:101E8000001002400000424280044242924B5B6AD2
:101E900003F00203002BE9D17B681B6803F0040305
:101EA000002B00F0A6800023FB758B4BDB6903F051
:101EB0008053002B0DD1884BDB69874A43F0805358
:101EC000D361854BDB6903F08053BB60BB680123A2
:101ED000FB75824B1B6803F48073002B18D17F4B7A
:101EE0001B687E4A43F480731360FFF70DFB386173
:101EF00008E0FFF709FB02463B69D31A642B01D9BE
:101F0000032303E1754B1B6803F48073002BF0D0AF
:101F10007B68DB68012B06D16F4B1B6A6E4A43F06E
:101F2000010313622DE07B68DB68002B0CD16A4B48
:101F30001B6A694A23F001031362674B1B6A664AF6
:101F400023F0040313621CE07B68DB68052B0CD1D3
:101F5000614B1B6A604A43F0040313625E4B1B6AC9
:101F60005D4A43F0010313620BE05B4B1B6A5A4A64
:101F700023F001031362584B1B6A574A23F00403F2
:101F800013627B68DB68002B15D0FFF7BDFA386160
:101F90000AE0FFF7B9FA02463B69D31A41F28832E8
:101FA000934201D90323B1E04B4B1B6A03F00203B8
:101FB000002BEED014E0FFF7A7FA38610AE0FFF734
:101FC000A3FA02463B69D31A41F28832934201D9FF
:101FD00003239BE0404B1B6A03F00203002BEED16E
:101FE000FB7D012B05D13C4BDB693B4A23F0805341
:101FF000D3617B68DB69002B00F08780364B5B6820
:1020000003F00C03082B61D07B68DB69022B46D1FF
:10201000334B00221A60FFF777FA386108E0FFF7C8
:1020200073FA02463B69D31A022B01D903236DE0F0
:10203000294B1B6803F00073002BF0D17B681B6AEF
:10204000B3F5803F08D1244B5B6823F400327B68F2
:102050009B68214913434B601F4B5B6823F4741248
:102060007B68196A7B685B6A0B431B4913434B60AF
:102070001B4B01221A60FFF747FA386108E0FFF7AF
:1020800043FA02463B69D31A022B01D903233DE0F0
:10209000114B1B6803F00073002BF0D035E0104BA0
:1020A00000221A60FFF730FA386108E0FFF72CFAD7
:1020B00002463B69D31A022B01D9032326E0064BC3
:1020C0001B6803F00073002BF0D11EE07B68DB6916
:1020D000012B07D1012319E00010024000700040DD
:1020E000600042420B4B5B68FB60FB6803F480328C
:1020F0007B681B6A9A4206D1FB6803F470127B6806
:102100005B6A9A4201D0012300E000231846183789
:10211000BD4680BD0010024080B584B000AF78603D
:1021200039607B68002B01D10123D0E06A4B1B682A
:1021300003F007033A689A4210D9674B1B6823F0F3
:10214000070265493B6813430B60634B1B6803F050
:1021500007033A689A4201D00123B8E07B681B6804
:1021600003F00203002B20D07B681B6803F00403FC
:10217000002B05D0594B5B68584A43F4E063536029
:102180007B681B6803F00803002B05D0534B5B688A
:10219000524A43F460535360504B5B6823F0F002A3
:1021A0007B689B684D4913434B607B681B6803F059
:1021B0000103002B40D07B685B68012B07D1474BA4
:1021C0001B6803F40033002B15D101237FE07B68EB
:1021D0005B68022B07D1414B1B6803F00073002B97
:1021E00009D1012373E03D4B1B6803F00203002B70
:1021F00001D101236BE0394B5B6823F003027B685C
:102200005B68364913434B60FFF77EF9F8600AE0DC
:10221000FFF77AF90246FB68D31A41F288329342FB
:1022200001D9032353E02D4B5B6803F00C027B685C
:102230005B689B009A42EBD1274B1B6803F00703B6
:102240003A689A4210D2244B1B6823F007022249B5
:102250003B6813430B60204B1B6803F007033A688D
:102260009A4201D0012332E07B681B6803F004032B
:10227000002B08D0194B5B6823F4E0627B68DB68B5
:10228000164913434B607B681B6803F00803002B5F
:1022900009D0124B5B6823F460527B681B69DB003A
:1022A0000E4913434B6000F021F802460B4B5B686C
:1022B0001B0903F00F030A49CB5C22FA03F3094A16
:1022C0001360094B1B681846FFF7DCF8002318461B
:1022D0001037BD4680BD00BF002002400010024004
:1022E00000840008000000200400002090B48AB0A0
:1022F00000AF294B3C1D0FCB84E80F0040F20123B7
:102300003B800023FB610023BB6100237B62002331
:102310007B6100233B62214B5B68FB61FB6903F03F
:102320000C03042B02D0082B03D02BE01C4B3B6288
:102330002BE0FB699B0C03F00F0328333B4413F89D
:10234000243C7B61FB6903F48033002B12D0134BD8
:102350005B685B0C03F0010328333B4413F8283C13
:10236000BB617B690E4A03FB02F2BB69B2FBF3F36C
:102370007B6204E07B690B4A02FB03F37B627B6AAE
:102380003B6202E0064B3B6200BF3B6A18462837BF
:10239000BD4690BC704700BFF083000800100240AB
:1023A00000127A0000093D0080B400AF024B1B68A8
:1023B0001846BD4680BC70470000002080B500AFC5
:1023C000FFF7F2FF0246054B5B681B0A03F00703A9
:1023D0000349CB5C22FA03F3184680BD001002408B
:1023E0001084000880B500AFFFF7DEFF0246054B02
:1023F0005B68DB0A03F007030349CB5C22FA03F3B3
:10240000184680BD001002401084000880B485B0DA
:1024100000AF78600A4B1B680A4AA2FB03235B0AE1
:102420007A6802FB03F3FB6000BFFB685A1EFA6088
:10243000002BF9D100BF00BF1437BD4680BC7047E8
:1024400000000020D34D621080B582B000AF7860EC
:102450007B68002B01D1012341E07B6893F83D307C
:10246000DBB2002B06D17B68002283F83C20786821
:10247000FEF716FE7B68022283F83D207B681A680F
:102480007B6804331946104600F028FB7B68012264
:1024900083F846207B68012283F83E207B68012276
:1024A00083F83F207B68012283F840207B6801226B
:1024B00083F841207B68012283F842207B68012257
:1024C00083F843207B68012283F844207B68012243
:1024D00083F845207B68012283F83D2000231846BD
:1024E0000837BD4680BD000080B584B000AF78607D
:1024F00039603B68002B09D17B6893F83E30DBB232
:10250000012B14BF01230023DBB222E03B68042B24
:1025100009D17B6893F83F30DBB2012B14BF012354
:102520000023DBB215E03B68082B09D17B6893F8E8
:102530004030DBB2012B14BF01230023DBB208E0E3
:102540007B6893F84130DBB2012B14BF01230023D9
:10255000DBB2002B01D001235EE03B68002B04D1ED
:102560007B68022283F83E2013E03B68042B04D1F1
:102570007B68022283F83F200BE03B68082B04D1E4
:102580007B68022283F8402003E07B68022283F804
:1025900041207B681B6801223968184600F088FCDE
:1025A0007B681B681E4A934207D17B681B685A6C84
:1025B0007B681B6842F400425A647B681B68184AB7
:1025C00093420ED07B681B68B3F1804F09D07B68C3
:1025D0001B68144A934204D07B681B68124A9342DA
:1025E00011D17B681B689B6803F00703FB60FB68E5
:1025F000062B10D07B681B681A687B681B6842F04A
:1026000001021A6007E07B681B681A687B681B6818
:1026100042F001021A60002318461037BD4680BD03
:10262000002C0140000400400008004080B582B04A
:1026300000AF786039607B681B68002239681846F3
:1026400000F036FC7B681B68294A934217D17B68EF
:102650001B681A6A41F211131340002B0FD17B68DB
:102660001B681A6A40F244431340002B07D17B6871
:102670001B685A6C7B681B6822F400425A647B68B2
:102680001B681A6A41F211131340002B0FD17B68AB
:102690001B681A6A40F244431340002B07D17B6841
:1026A0001B681A687B681B6822F001021A603B688D
:1026B000002B04D17B68012283F83E2013E03B68A5
:1026C000042B04D17B68012283F83F200BE03B6898
:1026D000082B04D17B68012283F8402003E07B684B
:1026E000012283F84120002318460837BD4680BDEB
:1026F000002C014080B582B000AF78607B681B6819
:102700001B6903F00203022B22D17B681B68DB6884
:1027100003F00203022B1BD17B681B686FF00202DF
:102720001A617B6801221A777B681B689B6903F03A
:102730000303002B03D0786800F0B4F905E0786853
:1027400000F0A7F9786800F0B6F97B6800221A77E4
:102750007B681B681B6903F00403042B22D17B6890
:102760001B68DB6803F00403042B1BD17B681B6828
:102770006FF004021A617B6802221A777B681B687B
:102780009B6903F44073002B03D0786800F08AF94A
:1027900005E0786800F07DF9786800F08CF97B68D6
:1027A00000221A777B681B681B6903F00803082B5B
:1027B00022D17B681B68DB6803F00803082B1BD160
:1027C0007B681B686FF008021A617B6804221A7725
:1027D0007B681B68DB6903F00303002B03D0786878
:1027E00000F060F905E0786800F053F9786800F0CF
:1027F00062F97B6800221A777B681B681B6903F00B
:102800001003102B22D17B681B68DB6803F01003D8
:10281000102B1BD17B681B686FF010021A617B685C
:1028200008221A777B681B68DB6903F44073002B6E
:1028300003D0786800F036F905E0786800F029F9EF
:10284000786800F038F97B6800221A777B681B688B
:102850001B6903F00103012B0ED17B681B68DB6849
:1028600003F00103012B07D17B681B686FF00102A5
:102870001A61786800F004F97B681B681B6903F033
:102880008003802B0ED17B681B68DB6803F080031C
:10289000802B07D17B681B686FF080021A61786813
:1028A00000F091FB7B681B681B6903F04003402B21
:1028B0000ED17B681B68DB6803F04003402B07D117
:1028C0007B681B686FF040021A61786800F0FCF8C2
:1028D0007B681B681B6903F02003202B0ED17B68EB
:1028E0001B68DB6803F02003202B07D17B681B6883
:1028F0006FF020021A61786800F05CFB00BF0837B7
:10290000BD4680BD80B584B000AFF860B9607A6024
:10291000FB6893F83C30012B01D10223ACE0FB684B
:10292000012283F83C207B680C2B00F29F8001A2DF
:1029300052F823F0692900086D2A00086D2A000862
:102940006D2A0008A92900086D2A00086D2A0008D0
:102950006D2A0008EB2900086D2A00086D2A00087E
:102960006D2A00082B2A0008FB681B68B968184606
:1029700000F016F9FB681B689A69FB681B6842F057
:1029800008029A61FB681B689A69FB681B6822F061
:1029900004029A61FB681B689969BB681A69FB6845
:1029A0001B680A439A6162E0FB681B68B9681846B5
:1029B00000F05CF9FB681B689A69FB681B6842F4CD
:1029C00000629A61FB681B689A69FB681B6822F4C5
:1029D00080629A61FB681B689969BB681B691A026F
:1029E000FB681B680A439A6141E0FB681B68B96891
:1029F000184600F0A5F9FB681B68DA69FB681B68DC
:102A000042F00802DA61FB681B68DA69FB681B6840
:102A100022F00402DA61FB681B68D969BB681A6995
:102A2000FB681B680A43DA6121E0FB681B68B96830
:102A3000184600F0EFF9FB681B68DA69FB681B6851
:102A400042F40062DA61FB681B68DA69FB681B68A4
:102A500022F48062DA61FB681B68D969BB681B6974
:102A60001A02FB681B680A43DA6100E000BFFB68DA
:102A7000002283F83C20002318461037BD4680BD55
:102A800080B483B000AF786000BF0C37BD4680BC17
:102A9000704780B483B000AF786000BF0C37BD468C
:102AA00080BC704780B483B000AF786000BF0C3743
:102AB000BD4680BC704780B483B000AF786000BF73
:102AC0000C37BD4680BC704780B483B000AF7860DF
:102AD00000BF0C37BD4680BC7047000080B485B095
:102AE00000AF786039607B681B68FB607B68294AAF
:102AF00093420BD07B68B3F1804F07D07B68264AA6
:102B0000934203D07B68254A934208D1FB6823F0A7
:102B10007003FB603B685B68FA681343FB607B688B
:102B20001C4A93420BD07B68B3F1804F07D07B687F
:102B3000194A934203D07B68184A934208D1FB6834
:102B400023F44073FB603B68DB68FA681343FB6067
:102B5000FB6823F080023B685B691343FB607B6882
:102B6000FA681A603B689A687B68DA623B681A68A0
:102B70007B689A627B68074A934203D13B681A6973
:102B80007B681A637B6801225A6100BF1437BD4617
:102B900080BC7047002C0140000400400008004049
:102BA00080B487B000AF786039607B681B6A23F01F
:102BB00001027B681A627B681B6A7B617B685B68C9
:102BC0003B617B689B69FB60FB6823F07003FB60E3
:102BD000FB6823F00303FB603B681B68FA68134340
:102BE000FB607B6923F002037B613B689B687A6929
:102BF00013437B617B681C4A93420CD17B6923F0B1
:102C000008037B613B68DB687A6913437B617B69FE
:102C100023F004037B617B68134A934211D13B6923
:102C200023F480733B613B6923F400733B613B6891
:102C30005B693A6913433B613B689B693A6913439B
:102C40003B617B683A695A607B68FA689A613B68C5
:102C50005A687B685A637B687A691A6200BF1C37BE
:102C6000BD4680BC704700BF002C014080B487B0D7
:102C700000AF786039607B681B6A23F010027B68C4
:102C80001A627B681B6A7B617B685B683B617B685F
:102C90009B69FB60FB6823F4E043FB60FB6823F463
:102CA0004073FB603B681B681B02FA681343FB60C0
:102CB0007B6923F020037B613B689B681B017A6979
:102CC00013437B617B681D4A93420DD17B6923F0DE
:102CD00080037B613B68DB681B017A6913437B617E
:102CE0007B6923F040037B617B68144A934213D1D4
:102CF0003B6923F480633B613B6923F400633B61E0
:102D00003B685B699B003A6913433B613B689B6985
:102D10009B003A6913433B617B683A695A607B6860
:102D2000FA689A613B685A687B689A637B687A693B
:102D30001A6200BF1C37BD4680BC7047002C0140A2
:102D400080B487B000AF786039607B681B6A23F479
:102D500080727B681A627B681B6A7B617B685B6838
:102D60003B617B68DB69FB60FB6823F07003FB6001
:102D7000FB6823F00303FB603B681B68FA6813439E
:102D8000FB607B6923F400737B613B689B681B02DB
:102D90007A6913437B617B681D4A93420DD17B693D
:102DA00023F400637B613B68DB681B027A69134391
:102DB0007B617B6923F480637B617B68144A934267
:102DC00013D13B6923F480533B613B6923F40053E7
:102DD0003B613B685B691B013A6913433B613B689C
:102DE0009B691B013A6913433B617B683A695A60EE
:102DF0007B68FA68DA613B685A687B68DA637B68EB
:102E00007A691A6200BF1C37BD4680BC704700BF9C
:102E1000002C014080B487B000AF786039607B68D7
:102E20001B6A23F480527B681A627B681B6A3B61D1
:102E30007B685B687B617B68DB69FB60FB6823F414
:102E4000E043FB60FB6823F44073FB603B681B6856
:102E50001B02FA681343FB603B6923F400533B6198
:102E60003B689B681B033A6913433B617B680F4ACD
:102E7000934209D17B6923F480437B613B685B69A2
:102E80009B017A6913437B617B687A695A607B682E
:102E9000FA68DA613B685A687B681A647B683A6949
:102EA0001A6200BF1C37BD4680BC7047002C014031
:102EB00080B487B000AFF860B9607A60BB6803F097
:102EC0001F03012202FA03F37B61FB681A6A7B6924
:102ED000DB431A40FB681A62FB681A6ABB6803F09E
:102EE0001F03796801FA03F31A43FB681A6200BFF3
:102EF0001C37BD4680BC704780B485B000AF786099
:102F000039607B6893F83C30012B01D1022346E005
:102F10007B68012283F83C207B68022283F83D20F5
:102F20007B681B685B68FB607B681B689B68BB6099
:102F3000FB6823F07003FB603B681B68FA6813436F
:102F4000FB607B681B68FA685A607B681B68164ADE
:102F500093420ED07B681B68B3F1804F09D07B6829
:102F60001B68124A934204D07B681B68104A934244
:102F70000CD1BB6823F08003BB603B685B68BA6818
:102F80001343BB607B681B68BA689A607B68012248
:102F900083F83D207B68002283F83C2000231846FC
:102FA0001437BD4680BC7047002C0140000400402F
:102FB0000008004080B483B000AF786000BF0C37D9
:102FC000BD4680BC704780B483B000AF786000BF5E
:102FD0000C37BD4680BC704780B582B000AF7860CA
:102FE0007B68002B01D101233FE07B6893F83D30E3
:102FF000DBB2002B06D17B68002283F83C20786886
:10300000FEF7A6F87B68242283F83D207B681B68C6
:10301000DA687B681B6822F40052DA60786800F096
:1030200025FC7B681B681A697B681B6822F4904248
:103030001A617B681B685A697B681B6822F02A0248
:103040005A617B681B68DA687B681B6842F400522F
:10305000DA607B6800221A647B68202283F83D20B6
:103060007B68202283F83E20002318460837BD469F
:1030700080BD80B58AB002AFF860B9603B6013468E
:10308000FB8000237B61FB6893F83D30DBB2202B93
:103090007CD1BB68002B02D0FB88002B01D101231F
:1030A00075E0FB6893F83C30012B01D102236EE000
:1030B000FB68012283F83C20FB6800221A64FB684D
:1030C000212283F83D20FEF71FFA7861FB68FA8819
:1030D0009A84FB68FA88DA84FB689B68B3F5805FA2
:1030E00008D1FB681B69002B04D10023FB61BB687E
:1030F000BB6103E0BB68FB610023BB61FB6800228E
:1031000083F83C202AE03B6800937B690022802101
:10311000F86800F011FA0346002B01D0032336E0D3
:10312000FB69002B0BD1BB691B881A46FB681B6827
:10313000C2F308025A60BB690233BB6107E0FB6956
:103140001A78FB681B685A60FB690133FB61FB68F6
:10315000DB8C9BB2013B9AB2FB68DA84FB68DB8CA8
:103160009BB2002BCFD13B6800937B6900224021AA
:10317000F86800F0E1F90346002B01D0032306E0D4
:10318000FB68202283F83D20002300E0022318463C
:103190002037BD4680BD000080B58AB000AF7860A2
:1031A0007B681B681B687B627B681B68DB683B6213
:1031B0007B681B685B69FB610023BB6100237B614B
:1031C0007B6A03F00F03BB61BB69002B0DD17B6AE7
:1031D00003F02003002B08D03B6A03F02003002BF0
:1031E00003D0786800F099FA7BE1BB69002B00F00E
:1031F000B180FB6903F00103002B05D13B6A03F4A6
:103200009073002B00F0A6807B6A03F00103002B73
:103210000AD03B6A03F48073002B05D07B681B6CDB
:1032200043F001027B681A647B6A03F00403002BFD
:103230000AD0FB6903F00103002B05D07B681B6CEF
:1032400043F002027B681A647B6A03F00203002BDE
:103250000AD0FB6903F00103002B05D07B681B6CCF
:1032600043F004027B681A647B6A03F00803002BB6
:103270000FD03B6A03F02003002B04D1FB6903F05D
:103280000103002B05D07B681B6C43F008027B68B0
:103290001A647B681B6C002B00F01E817B6A03F0B4
:1032A0002003002B07D03B6A03F02003002B02D041
:1032B000786800F032FA7B681B685B6903F04003B2
:1032C000002B14BF01230023DBB27B617B681B6CE6
:1032D00003F00803002B02D17B69002B31D0786802
:1032E00000F074F97B681B685B6903F04003002BF6
:1032F00023D07B681B685A697B681B6822F04002F8
:103300005A617B689B6B002B13D07B689B6B764A62
:103310005A637B689B6B1846FEF748FA0346002BFE
:1033200016D07B689B6B5B6B7A68926B10469847F4
:103330000EE0786800F0ECF80AE0786800F0E8F851
:1033400006E0786800F0E4F87B6800221A64C3E0C5
:1033500000BFC1E07B681B6B012B40F0A1807B6A42
:1033600003F01003002B00F09B803B6A03F0100376
:10337000002B00F095800023FB607B681B681B68B6
:10338000FB607B681B685B68FB60FB687B681B6895
:103390005B6903F04003002B4ED07B689B6B1B687E
:1033A0005B683B823B8A002B00F098807B689B8D9A
:1033B0003A8A9A4280F092807B683A8ADA857B6802
:1033C0009B6B9B69202B2BD07B681B68DA687B6822
:1033D0001B6822F48072DA607B681B685A697B681C
:1033E0001B6822F001025A617B681B685A697B687E
:1033F0001B6822F040025A617B68202283F83E203D
:103400007B6800221A637B681B68DA687B681B682C
:1034100022F01002DA607B689B6B1846FEF78BF98E
:103420007B689A8D7B68DB8D9BB2D31A9BB2194661
:10343000786800F076F851E07B689A8D7B68DB8DC8
:103440009BB2D31A7B827B68DB8D9BB2002B47D06B
:103450007B8A002B44D07B681B68DA687B681B681A
:1034600022F49072DA607B681B685A697B681B687B
:1034700022F001025A617B68202283F83E207B689B
:1034800000221A637B681B68DA687B681B6822F07D
:103490001002DA607B8A1946786800F042F81FE073
:1034A0007B6A03F08003002B08D03B6A03F08003A3
:1034B000002B03D0786800F0C9F812E07B6A03F0B3
:1034C0004003002B0DD03B6A03F04003002B08D0D3
:1034D000786800F00AF904E000BF02E000BF00E0F5
:1034E00000BF2837BD4680BD2536000880B483B0B4
:1034F00000AF786000BF0C37BD4680BC704780B419
:1035000083B000AF786000BF0C37BD4680BC704709
:1035100080B483B000AF786000BF0C37BD4680BC7C
:10352000704780B483B000AF78600B467B8000BFEB
:103530000C37BD4680BC704780B584B000AFF860E2
:10354000B9603B601346FB712CE0BB69B3F1FF3FF0
:1035500028D0BB69002B07D0FDF7D6FF02463B6899
:10356000D31ABA699A421DD2FB681B68DA68FB68F5
:103570001B6822F4D072DA60FB681B685A69FB682A
:103580001B6822F001025A61FB68202283F83D206B
:10359000FB68202283F83E20FB68002283F83C2051
:1035A00003230FE0FB681B681A68BB681340BA6806
:1035B0009A420CBF01230023DBB21A46FB799A42E0
:1035C000C3D0002318461037BD4680BD80B483B0F9
:1035D00000AF78607B681B68DA687B681B6822F440
:1035E0009072DA607B681B685A697B681B6822F0FE
:1035F00001025A617B681B6B012B07D17B681B683A
:10360000DA687B681B6822F01002DA607B6820228F
:1036100083F83E207B6800221A6300BF0C37BD464A
:1036200080BC704780B584B000AF78607B685B6A0F
:10363000FB60FB680022DA85FB680022DA84F86808
:10364000FFF766FF00BF1037BD4680BD80B485B070
:1036500000AF78607B6893F83D30DBB2212B3ED120
:103660007B689B68B3F5805F14D17B681B69002B76
:1036700010D17B681B6AFB60FB681B881A467B685D
:103680001B68C2F308025A607B681B6A9A1C7B683D
:103690001A6208E07B681B6A591C7A6811621A7802
:1036A0007B681B685A607B68DB8C9BB2013B9BB2DA
:1036B0007A681946D184002B0FD17B681B68DA68C1
:1036C0007B681B6822F08002DA607B681B68DA681E
:1036D0007B681B6842F04002DA60002300E00223AE
:1036E00018461437BD4680BC704780B582B000AF25
:1036F00078607B681B68DA687B681B6822F0400290
:10370000DA607B68202283F83D207868FFF7EEFEC0
:10371000002318460837BD4680BD80B586B000AF8F
:1037200078607B6893F83E30DBB2222B40F09980C2
:103730007B689B68B3F5805F17D17B681B69002BA2
:1037400013D100237B617B689B6A3B617B681B68AC
:103750005B689BB2C3F308039AB23B691A807B682B
:103760009B6A9A1C7B689A6226E07B689B6A7B61F5
:1037700000233B617B689B68B3F5805F07D07B6863
:103780009B68002B0AD17B681B69002B06D17B68E4
:103790001B685B68DAB27B691A7008E07B681B689B
:1037A0005B68DBB203F07F03DAB27B691A707B6877
:1037B0009B6A5A1C7B689A627B68DB8D9BB2013BDB
:1037C0009BB27A681946D185002B48D17B681B686B
:1037D000DA687B681B6822F02002DA607B681B686D
:1037E000DA687B681B6822F48072DA607B681B6889
:1037F0005A697B681B6822F001025A617B682022AB
:1038000083F83E207B681B6B012B23D17B68002251
:103810001A637B681B68DA687B681B6822F01002F9
:10382000DA607B681B681B6803F01003102B0AD159
:103830000023FB607B681B681B68FB607B681B6860
:103840005B68FB60FB687B689B8D19467868FFF7B7
:1038500068FE02E07868FFF752FE002302E00023D2
:1038600000E0022318461837BD4680BD80B584B0FD
:1038700000AF78607B681B681B6923F440517B684C
:10388000DA687B681B680A431A617B689A687B6800
:103890001B691A437B685B691343BB607B681B68C9
:1038A000DB6823F4B05323F00C037A681268B9681C
:1038B0000B43D3607B681B685B6923F440717B68B2
:1038C0009A697B681B680A435A617B681B682C4AAB
:1038D000934203D1FEF786FDF86002E0FEF76EFD2D
:1038E000F860FA6813469B0013449A001A447B68F8
:1038F0005B689B00B2FBF3F3224AA2FB03235B0944
:103900001901FA6813469B0013449A001A447B6815
:103910005B689B00B2FBF3F21A4BA3FB02035B094B
:10392000642000FB03F3D31A1B013233154AA2FBB8
:1039300003235B0903F0F0031944FA6813469B0064
:1039400013449A001A447B685B689B00B2FBF3F255
:103950000C4BA3FB02035B09642000FB03F3D31AA7
:103960001B013233074AA2FB03235B0903F00F025A
:103970007B681B680A449A6000BF1037BD4680BD53
:10398000003801401F85EB51014B1868704700BF9C
:103990000C00002070B500260C4D0D4C641BA410CB
:1039A000A64209D104F0DEFC00260A4D0A4C641B35
:1039B000A410A64205D170BD55F8043B98470136C6
:1039C000EEE755F8043B98470136F2E7C488000853
:1039D000C4880008C4880008C88800080346024458
:1039E000934200D1704703F8011BF9E7002B2DE942
:1039F000F0471F46BBBF03F100431F4600232D23A2
:103A000088B01446129A109D1370149BDDF84CA0D8
:103A100023F02008B8F1460F05D0B8F1450F00D1CA
:103A20000135022300E0032307AA049206AACDE988
:103A300002A2CDE9003522463B4601F0D1FEB8F1A5
:103A4000470F064602D1119BDB0722D5B8F1460F7E
:103A500006EB050910D13378302B0AD10022002360
:103A600020463946FCF7A0FF18B9C5F10105CAF890
:103A70000050DAF8003099440022002320463946ED
:103A8000FCF792FF08B1CDF81C903022079B4B4504
:103A900007D33046079B159A9B1B136008B0BDE8FF
:103AA000F087591C07911A70F0E70346F7B5002913
:103AB00003F8022BB6BF2D222B224942092942705E
:103AC0002BDD0DF10704A4460A2791FBF7F60A4601
:103AD000A64607FB1615632A05F13005314604F1A9
:103AE000FF340EF8015CF0DC3031AEF1020504F871
:103AF000011C2946441C61450AD30DF10902A2EBC1
:103B00000E02654588BF00221344181A03B0F0BDA9
:103B100011F8012B04F8012FEDE7302330318370C9
:103B2000C170031DF1E700002DE9F04F91B00C4684
:103B3000DDF8688016461F46054603F059F903680C
:103B400018460993FCF704FB00230E93D8F80030C5
:103B50000A90073323F0070303F1080294F8189042
:103B6000D4F800B0C8F80020D3E90023C4E9122338
:103B7000D4E9128A2AF000430B934FF0FF324046FB
:103B80009C4B0B99FCF742FF70BB4FF0FF32404655
:103B9000984B0B99FCF71CFF30BB002200234046DA
:103BA0005146FCF70BFF10B12D2384F84330924BA4
:103BB0009248B9F1470F94BF9846804603234FF0CF
:103BC000000A23612BF00403236033462146284674
:103BD00000970FAA00F0D4F9013040F090804FF028
:103BE000FF3011B0BDE8F08F424653464046514683
:103BF000FCF70CFF48B1BAF1000FB8BF2D23804885
:103C0000B8BF84F843307F4BD3E7636809F0DF0126
:103C10005A1C42D106236360002206920EAACDE907
:103C200004920DAA4BF4806303920DF13302CDE9A7
:103C300001322360636842460093284653460B9145
:103C4000FFF7D4FE0B99804647290D9908D1C81C6F
:103C500002DB6368994240DDA9F102095FFA89F944
:103C6000B9F1650F1FD84A46013904F150000D9192
:103C7000FFF71BFF0E9A82461318012A236102DC0C
:103C80002268D20701D5013323619DF83330002B20
:103C90009BD02D2384F8433097E74729BCD1002BD4
:103CA000BAD10123B7E7B9F1660F18D100296368CB
:103CB0000BDD216113B92268D00702D501330B4413
:103CC00023614FF0000AA165DFE713B92268D2072C
:103CD00001D50233F4E70123F2E74FF067090E9BA9
:103CE000994205DB23682161D807EAD54B1CE7E739
:103CF0000029CCBF0122C1F102021344E0E723688E
:103D00005A0507D42369424631462846B847013050
:103D10002BD164E7B9F1650F40F2DD80D4E91201DF
:103D200000220023FCF740FE002833D00123314657
:103D30002846354AB84701303FF451AFDDE90D233D
:103D40009A4202DB2368D8070FD5DDE90923314603
:103D50002846B84701303FF442AF4FF0000804F165
:103D60001A090E9B013B434509DC23689B0700F1C0
:103D70000281E0680F9B9842B8BF184631E70123E3
:103D80004A4631462846B84701303FF428AF08F18B
:103D90000108E6E70D9B002B38DC0123314628465D
:103DA000194AB84701303FF41AAFDDE90D23134338
:103DB00002D12368D907D8D5DDE909233146284641
:103DC000B84701303FF40BAF4FF0000904F11A0A75
:103DD0000D9B5B424B4501DC0E9B94E70123524651
:103DE00031462846B84701303FF4F9AE09F10109E0
:103DF000EEE700BFFFFFEF7F1C840008208400086F
:103E000028840008248400082C8400080E9AA36DDE
:103E10009A42A8BF1A46002A914637DC4FF0000BA1
:103E200029EAE97904F11A02D4F858A0AAEB0903A7
:103E30005B4533DCDDE90D239A423BDB2368DA077F
:103E400038D40E9B0D99A3EB0A02A3EB010991450F
:103E5000A8BF9146B9F1000F34DC4FF0000829EA01
:103E6000E97904F11A0ADDE90D239B1AA3EB090392
:103E700043457FF77AAF0123524631462846B8477B
:103E800001303FF4ACAE08F10108ECE713463146CF
:103E900042462846B8470130C0D1A0E6012331464A
:103EA00028460B92B84701303FF499AE0B9A0BF1BC
:103EB000010BB9E73146DDE909232846B84701304F
:103EC000BFD18CE64B463146284608EB0A02B8477C
:103ED0000130C2D183E60E9A012A01DCDB0737D517
:103EE0000123424631462846B84701303FF477AEB9
:103EF000DDE9092331462846B84701303FF46FAE6B
:103F0000D4E9120100220023FCF74EFDD8B90E9B24
:103F100008F10102013B31462846B84701300ED175
:103F20005DE601234A4631462846B84701303FF452
:103F300056AE08F101080E9B013B4345F1DC5346A8
:103F400004F15002E0E64FF0000804F11A09F2E72C
:103F500001234246DFE701234A4631462846B84757
:103F600001303FF43CAE08F10108E3680F995B1A99
:103F70004345F0DCFDE64FF0000804F11909F4E7D1
:103F80002DE9F047164699468A680B690746934221
:103F9000B8BF1346336091F843200C46DDF820800B
:103FA0000AB1013333602368990642BF3368023394
:103FB0003360256815F0060506D104F1190AE36897
:103FC00032689B1AAB4228DC94F84320131E226807
:103FD00018BF012392062DD44946384604F1430206
:103FE000C047013020D02368E56803F00603042BA6
:103FF00018BF002532684FF00006A36808BFAD1A4D
:10400000226908BF25EAE5759342C4BF9B1AED18E3
:104010001A34B5421AD1002008E00123524649461D
:104020003846C047013003D14FF0FF30BDE8F0877C
:104030000135C4E73020E11881F843005A1C94F898
:1040400045102244023382F84310C5E7012322467B
:1040500049463846C0470130E6D00136D9E700006E
:104060002DE9FF470F7E9146782F80460C469A46F1
:104070000C9D01F1430207D8622F0AD8002F00F0EF
:10408000D980582F00F0A48004F1420584F84270D2
:104090003AE0A7F16303152BF6D801A151F823F0FC
:1040A000F94000080D4100088940000889400008D7
:1040B00089400008894000080D4100088940000837
:1040C0008940000889400008894000081B42000818
:1040D0003D410008FD410008894000088940000872
:1040E0003D420008894000083D4100088940000821
:1040F00089400008054200082B681A1D1B682A60C9
:1041000004F1420584F842300123A4E020682968C4
:10411000060601F104030AD50E682B60002E03DAAF
:104120002D23764284F843300A235E4819E00E6856
:1041300010F0400F2B6018BF36B2EFE72B682068F5
:10414000191D2960010601D51E6802E04606FBD54F
:104150001E886F2F0CBF08230A235248002184F8C1
:1041600043106568002DA8BF2168A560A4BF21F099
:10417000040121600EB9002D4DD01546B6FBF3F1B8
:1041800003FB1167C75D05F8017D3746BB420E464C
:10419000F4D9082B0BD12368DE0708D523696168A1
:1041A0009942DEBF302305F8013C05F1FF35521B73
:1041B00022614B4621464046CDF800A003AAFFF7F6
:1041C000DFFE01304CD14FF0FF3004B0BDE8F08786
:1041D000344881F845702968236851F8046B2960D8
:1041E0001D0614D5DF0744BF43F0200323601EB92A
:1041F000236823F0200323601023AFE7236843F0F4
:10420000200323607823284884F84530E3E75906E3
:1042100048BFB6B2E6E71546BBE72B682668181D0F
:104220006169286035061B6801D5196002E07006D7
:10423000FBD51980002315462361BAE72B680021BE
:104240001A1D2A601D686268284602F057FE08B1F0
:10425000401B606063682361002384F84330A8E753
:104260002A46494640462369D0470130ABD02368EF
:104270009B0713D4E068039B9842B8BF1846A4E795
:104280000123324649464046D04701309BD0013594
:10429000E36803995B1AAB42F2DCEBE7002504F11B
:1042A0001906F5E72E8400083F8400082DE9F04F39
:1042B00087B003938B6817465A1EB2F5AE7F85BF51
:1042C0006FF4AE755B190023029388BF40F25D1353
:1042D0008B464FF000058CBF8B6002930B688046C5
:1042E00043F4F0634BF81C3B0C465E46AA46A946D5
:1042F000CDE904550195A26852B13B681B784E2B5D
:1043000064D8402B3CD8A3F12B01C8B20E283AD96F
:10431000B9F1000F03D0236823F4807323600AF1FE
:10432000FF3ABAF1010F00F213815E4500F20581F8
:104330000125284607B0BDE8F08FA3F161020D2AE0
:10434000E6D801A151F822F0874400081143000883
:104350001143000811430008E7440008BF44000867
:104360001143000811430008954400081143000858
:104370001143000811430008114300084D44000890
:10438000A3F14102DBE70E29C2D801A050F821F0C9
:104390003F440008114300083F440008D34400088C
:1043A00011430008ED43000829440008294400088F
:1043B0002944000829440008294400082944000829
:1043C0002944000829440008294400086E2B09D814
:1043D000602BB2D8542B77D0592B99D1072D97D178
:1043E000082529E0742B6FD0792BF6E72168C805E2
:1043F0001AD5029B21F08001216009F101091BB14E
:10440000013B01320293A260A368013BA3602369D0
:10441000013323617B68013B002B7B6040F3848088
:104420003B6801333B6066E71AEB050F7FF470AF22
:10443000226822F4C072226006F8013BE4E7226899
:1044400010067FF565AF22F08002F4E7BAF1000FA5
:104450000ED1B9F1000F0ED1226802F4E061B1F57E
:10446000E06F08D122F4F0624FF0010A2260E3E726
:10447000BAF1020F55D0012D02D0042D7FF448AFC0
:104480000135EDB2D8E7BAF1010F7FF441AF4FF03B
:10449000020AD1E77DB9B9F1000F7FF43CAF226881
:1044A00002F4E061B1F5E06F7FF439AF22F4F0621D
:1044B00001252260C0E7032DE2D0052DDEE7022DA5
:1044C0007FF426AF0325B7E7062D7FF421AF07253C
:1044D000B2E7226891057FF51BAF22F420722260BB
:1044E000CDF80490A8E7226802F4A061B1F5806FCE
:1044F00006D050057FF50CAFB9F1000F3FF40FAFB8
:10450000910558BF019922F4F06258BFA9EB01014F
:1045100042F4C0724FF0000958BFCDE90416226082
:104520008AE74FF0030A87E739464046D4F88031DE
:10453000984700283FF4DFAEEAE6D4F87C313A46EB
:10454000404616F8011D98472369013B2361ECE6BC
:104550006B1E062B25D8022D36D85E457FF6E8AEB9
:10456000D4F87C313A46404616F8011D9847236935
:10457000013B2361F1E70298D4F87C3110F8011D6A
:104580003A460290404698472369013B23610AF16D
:10459000FF3A5FFA8AFABAF1020FECD1033DEDB2AD
:1045A000761B2368DA052FD55B0510D55E457FF6AF
:1045B000BFAED4F87C313A46404616F8011D984704
:1045C0002369013B2361F1E7AA460296DFE716F86B
:1045D000011C2369652903F1FF3306F1FF352361CF
:1045E0000CD045290AD0D4F87C313A464046984749
:1045F000236916F8021C013BB51E23613A4640466A
:10460000D4F87C3198472E46256815F0100555D111
:104610003570236803F4C063B3F5806F1BD1019B31
:104620004B45A3EB090223D100225946404600F036
:1046300007FF2268039B12F0020F06460F461B6815
:1046400021D01A1D03990A601B68C3E90067E3685B
:104650000133E3606DE6049B002BE5D005990A2346
:104660002A464046013100F06DFF049B059EC21AA8
:1046700004F26F139E4228BF04F5B7763046104906
:1046800000F0B4F8D0E712F0040F03F10402D9D11E
:10469000DDF80CC0CCF80020D3F8008002460B46B1
:1046A000FCF7B4F928B1074800F09CF8C8F80000FE
:1046B000CDE730463946FCF707FAF7E7002538E63C
:1046C00050840008C08800080FB40A4B13B51C685A
:1046D00024B1A36913B9204601F086FF05AB20463B
:1046E000049AA168019303F051FB02B0BDE81040A9
:1046F00004B070470C00002070B50E46054618B196
:1047000083690BB901F070FFAB69AC6813B9284637
:1047100001F06AFF2C4B9C4220D16C68636EDB0772
:1047200005D4A389980502D4A06D02F066FBA38985
:1047300019071DD52369DBB1013EA36816F8011FD7
:10474000013BA36039BB002B38DA22460A212846F8
:1047500000F0FAFE013011D00A2511E01B4B9C42FB
:1047600001D1AC68DAE71A4B9C4208BFEC68D5E788
:104770002146284600F03AFF0028DDD04FF0FF35F3
:10478000636EDA0705D4A3899B0502D4A06D02F0FD
:1047900035FB284670BD002B04DAA2699A4206DC7C
:1047A0000A2904D023685A1C22601970C5E72246E2
:1047B000284600F0C9FE0130BFD1DFE70A25236893
:1047C0005A1C22601D70DBE75C8600087C860008AE
:1047D0003C860008024B01461868FFF78DBF00BFFA
:1047E0000C000020004870470000C07F0EB46FF03E
:1047F000004100B59CB01DAB02900690079104915A
:104800000848094953F8042B0591006802A901934F
:1048100003F094F90022029B1A701CB05DF804EBBF
:1048200003B070470C0000200802FFFF2DE9F041A3
:104830000F46904602F0EEFE04460D46B8F1000F1A
:1048400011D0C7F30A53C3F16B03002B0BDD002417
:104850001B0503F17F5505F5401522462B46FBF756
:104860003BFE04460D4620462946BDE8F081000087
:104870002DE9F04F9B4600239FB01A939E4B824632
:104880001F680E4638461592FBF762FC4FF0000891
:1048900004464FF000091996199B1A782B2A4CD020
:1048A0003AD80D2A33D8082A33D8002A3DD000231D
:1048B0000A93199D2B78302B40F0AA806B7803F077
:1048C000DF03582B66D10A9B504601931AAB009325
:1048D0008A4ACDF808B01BAB19A901F08BFF10F084
:1048E0000706044605D0062E29D100230135199567
:1048F0000A93159B002B40F08A850A9BD3B1424650
:1049000009F10043104619461FB0BDE8F08F202A78
:10491000CDD101331993BFE72D2AC8D101220A92C4
:104920005A1C19925B78002BC3D1159B1996002B4A
:1049300040F06B8542464B46E4E70022EFE71A9AC7
:104940003AB135211CA802F069FF50461A9902F0CD
:1049500031FB013E042E06D8DFE806F00A031417E7
:104960000A00DDE91C892107C3D549F00049C0E7E9
:104970001B9ADDE91C8302F2334223F4801343EADD
:104980000259F0E7DFF87891EDE76FF000494FF05A
:10499000FF38E8E7199B5A1C19925B78302BF9D045
:1049A000002BA6D001230793199B0A22089300230A
:1049B0009B46CDE9053319980578A5F13003D9B2A6
:1049C000092927D92246394603F069FB002833D04C
:1049D00000202A465C4603460490652A01D0452AF9
:1049E00014D11CB9079A02439FD00024199E721C4F
:1049F000199272782B2A79D02D2A00F08380002713
:104A0000A2F13001092940F28380199600259FE028
:104A10000023C8E7BBF1080FD5BF0699059902FB33
:104A2000013302FB013300F10100D4BF069305936B
:104A30000BF1010B1990BEE7199B1A1919921A5D17
:104A4000BBF1000F36D05C460490A2F13003092B75
:104A500012D90123C1E7199B01305A1C19925A78C7
:104A6000302AF8D0A2F13103082B00F2D58404904B
:104A700000200446199B0893303A00F1010313D03B
:104A8000049905191944049123460A21AB4213D114
:104A90002318082B04F1010404441BDC0A230699A3
:104AA00003FB012306930023199A1846511C199100
:104AB0005278CAE75846D3E7082B04DC069F4F43D9
:104AC00006970133E2E75F1C102FDEBF059F4F43BF
:104AD0000597F6E7102CDFBF0A23059903FB012396
:104AE0000593E0E70023049301237BE70027B21C32
:104AF0001992B27884E700BF048700085884000840
:104B00000000F07F0127F2E7199A511C19915278A1
:104B1000302AF9D0A2F1310108293FF677AF4FF0E2
:104B20000A0EA2F1300C199A0992199A511C199186
:104B30005278A2F13005092D35D9099D491B082964
:104B400044F61F6502DC6545A8BF654607B16D42A6
:104B5000002C4CD1079901437FF4CBAE002B7FF49E
:104B6000E4AE692A26D023DC492A23D04E2A7FF4DA
:104B7000DCAE9D4919A802F08BF800283FF4D5AEB1
:104B8000199B1B78282B2CD198491CAA19A802F034
:104B900093F8052825D11D9BDDF8708043F0FF496F
:104BA00049F4E009A5E60EFB0C2CACF1300CBCE797
:104BB0006E2ADCE78E4919A802F06AF800283FF453
:104BC000B4AE199B8B49013B19A8199302F060F808
:104BD00010B9199B013319934FF00008DFF81892B0
:104BE00087E6864803F002FA8046894681E6049B00
:104BF000BBF1000F08BFA346EB1A102C06982646FF
:104C00000793A8BF1026FBF7EDFB092C80468946C9
:104C100013DD7B4B03EBC60353E91223FBF75CFC6C
:104C2000804605988946FBF7DDFB02460B46404669
:104C30004946FBF79BFA804689460F2C36DC079BDA
:104C4000002B3FF456AE22DD162B09DC6C494246A0
:104C500001EBC3014B46D1E90001FBF73DFCC3E783
:104C6000079AC4F12503934220DB654DC4F10F047C
:104C700005EBC4014246D1E900014B46FBF72CFC91
:104C8000079B1C1B05EBC405D5E90023E5E7079B43
:104C900016330BDB049B40465D1B594B494603EB27
:104CA000C505D5E90023FBF741FD9DE7079BA61B42
:104CB0001E44002E74DD16F00F030AD05049424600
:104CC00001EBC301D1E900014B46FBF705FC80462F
:104CD000894636F00F0652D0B6F59A7F27DD4FF0A1
:104CE000000BCDF810B0CDF820B0CDF818B02223CD
:104CF0004FF00008DFF80091CAF80030089B002B45
:104D00003FF4F7AD50461A9902F054F9504606990F
:104D100002F050F95046049902F04CF950460899B7
:104D200002F048F95946504602F044F9E1E5354BA6
:104D300040460593002349461F463611012E21DCCB
:104D40000BB1804689462F4BA9F1547903EBC70775
:104D50004246D7E900014B46FBF7BEFB264B0A460D
:104D60000B40294980468B42B9D8A1F580118B426E
:104D700086BF4FF0FF38DFF8949002F1547900239A
:104D800005937FE0F20705D5059BD3E90023FBF7E8
:104D9000A3FB0123059A0137083276100592CDE76F
:104DA000EDD0764216F00F020AD0154B404603EBC9
:104DB000C2034946D3E90023FBF7B8FC8046894685
:104DC0003611DCD01F2E23DD4FF0000BCDF810B0D4
:104DD000CDF820B0CDF818B022234FF000084FF0E6
:104DE0000009CAF8003089E7298400086C840008AB
:104DF00021840008AC8500080000F07FC08800080E
:104E0000A0870008788700080000A07CFFFFEF7FE4
:104E100016F0100318BF6A23404605934946002345
:104E2000B04FF20704D5D7E90023FBF755FB012368
:104E3000761007F10807F4D10BB180468946059B2F
:104E4000C3B1C9F30A52C2F16B03002B494611DD0D
:104E50001F2B40F32781342BD8BF4FF0FF334FF087
:104E60000008CFBF4FF05C79C2F14B0203FA02F2A7
:104E700002EA01090022002340464946FBF794FD5F
:104E80000028A1D1069B5A46009350462346089914
:104E900002F0F8F8089000283FF421AF049B4FF08F
:104EA000000B5D1B079BCDF810B0002BB4BF2B4649
:104EB00000230E93079B23EAE3731493089B504649
:104EC000596802F037F8069000283FF410AF089BAD
:104ED0000C301A6903F10C010232920002F01CF846
:104EE0001CAB01931BAB009342464B465046CDE9A9
:104EF0000C8902F009FC1A9000283FF4F8AE012159
:104F0000504602F057F90346049000283FF4EFAEF4
:104F10001B9D1C9A002DABBF0E9B149BEE185C1BB7
:104F2000059BA8BF149CA5EB030515446E4B05F12A
:104F3000FF35B8BF0E9E9D42C2F1360280F2C4809A
:104F40005B1B1F2B4FF00107A2EB030200F3B180A4
:104F5000002507FA03F30F93B718059BBE421444CC
:104F60001C443346A8BF3B46A342A8BF2346002BA0
:104F7000C2BFFF1AE41AF61A0E9B002B17DD1A4661
:104F80005046049902F0D4F9049000283FF4AFAEE3
:104F900001461A9A504602F023F9099000283FF47E
:104FA000A6AE50461A9902F005F8099B1A93002FF5
:104FB00000F38E80079B002B08DD5046149A06995B
:104FC00002F0B6F9069000283FF491AE002C08DDFF
:104FD00022465046069902F005FA069000283FF452
:104FE00086AE002E08DD32465046049902F0FAF9EA
:104FF000049000283FF47BAE5046069A1A9902F0BE
:105000007DFA834600283FF472AE0024C3680499F9
:10501000C4600B9302F056FAA0426BDA0B9B53EA82
:10502000080340F09180C9F31303002B40F08C80FB
:1050300029F000431B0D1B05B3F1D66F40F28480AD
:10504000DBF814301BB9DBF81030012B7CDD59463E
:105050000122504602F0C6F90499834602F032FA62
:10506000002871DD05994B46204A002900F08C800C
:1050700002EA0901B1F1D66F00F38680B1F15C7FDD
:105080007FF7AAAE40464946194B0022FBF724FAA7
:105090000B46034308BF22238046894608BFCAF84F
:1050A00000302FE64FF0FF3202FA03F303EA08085C
:1050B000E0E6C5F17F4505F57F0505F57B45E23561
:1050C00007FA05F50F9747E7012300250F9343E7FC
:1050D0003A4650461A9902F085F91A9000287FF452
:1050E00069AF04E68084000802FCFFFF0000F07F47
:1050F00000005039CDF8249065D10B9AC9F3130301
:105100005AB3994A93422BD1059B414603B34A4671
:10511000964B1340B3F1D46F4FF0FF321BD81B0DE9
:10512000C3F16B0302FA03F3994219D1904B099A28
:105130009A4202D101313FF4DAAD4FF000088B4BB7
:10514000099A1A4002F58019059B002B9AD1D9E5DE
:105150004FF0FF33E8E71346E6E753EA080381D050
:10516000E5B1099B1D42EFD00B9B40464946059A8D
:10517000C3B1FFF75BFB02460B46DDE90C01FAF712
:10518000F5FF80468946DFE71340A3F580136FEAF9
:1051900013594FF0FF386FEA0959D5E70F9B13EA0F
:1051A000080FE0E7FFF742FB02460B46DDE90C0182
:1051B000FAF7DAFF0022002380468946FBF7F4FB6A
:1051C0000028C1D008E65846049902F0F9FA0022F6
:1051D0004FF0804306460F46FBF7FAFB002870D0DD
:1051E0000B9B002B42D00026624F624D099B23F09F
:1051F00000431B0D1B050F930F9A5F4B9A4240F023
:10520000C380099B4046A3F15479494602F002FA53
:1052100002460B4630463946FBF75EF942464B469E
:10522000FAF7A4FF0B465149544A1940914280466F
:105230005DD90D9A4E4B9A4203D10C9B01333FF43A
:1052400056AD4FF0FF38DFF8289150461A9901F01B
:10525000B1FE5046069901F0ADFE5046049901F0AA
:10526000A9FE5946504601F0A5FE27E6B8F1000F09
:1052700019D1099BC3F31303E3B900223046394621
:105280003C4BFBF79BFBC8B90022304639463C4BF0
:10529000FBF722F904460D4605F1004316941793D7
:1052A000DDE91667A2E7B8F1010F03D1099B002BD6
:1052B0003FF492AD00260024324F96E70B9C304D10
:1052C000EAE72F4B002230463946FBF705F90B9BE6
:1052D00004460D4633B901F1004310901193DDE906
:1052E000106783E702460B46CDE91023F7E703F189
:1052F0005479059B002BA8D129F000430F9A1B0D70
:105300001B059A42A1D120462946FBF72DFCFBF74D
:10531000B5F802460B4620462946FAF725FF0B9AB8
:10532000C9F3130343EA0803134304460D4666D04A
:1053300009A3D3E90023FBF741FB00287FF4E2AC8B
:1053400007A3D3E9002320462946FBF755FB002895
:105350003FF47BAFD6E400BF9535A094FFFFDF3F5D
:1053600035E5AF350000E03FFFFF0F000000F07FA4
:10537000FFFFEF7F0000F03F0000E07FFFFF9F7C1A
:105380000000E03F0000F0BF059B13B30F9BB3F19B
:10539000D46F1ED826A3D3E9002320462946FBF765
:1053A00017FB90B129462046FBF76EFB012838BF5A
:1053B0000120FBF717F80B9B04460D46D3B901F10A
:1053C000004312901393DDE912670F9A07F1D66339
:1053D0009F1ADDE90C0102F01DF902460B4630462A
:1053E0003946FBF779F8DDE90C23FAF7BFFE804672
:1053F00089467EE702460B46CDE91223E3E70EA37A
:10540000D3E90023FBF7DAFAA1E700230A93199BFB
:10541000159A1360FFF771BA652A3FF463AB452A0A
:105420003FF460AB0123FFF795BB00BFAFF30080F3
:105430000000C0FFFFFFDF419535A094FFFFCF3F85
:10544000014BFFF715BA00BF74000020012B2DE9B6
:10545000F047804601D0242B06D9FEF795FA162393
:1054600003600020BDE8F0870D46354F284615F84B
:10547000014BE65D16F00806F8D12D2C2FD1012640
:105480002C78851C002B57D0102B09D1302C07D13C
:10549000287800F0DF00582849D110236C780235B5
:1054A000002706F1004E0EF1FF3EBEFBF3F9384631
:1054B00003FB19EAA4F1300CBCF1090F14D86446BF
:1054C000A34222DD002F1DDB81451BD301D1A24564
:1054D00018DB012700FB034015F8014BEAE72B2CF2
:1054E00004BF2C78851CCDE7A4F1410CBCF1190F49
:1054F00001D8373CE4E7A4F1610CBCF1190F04D8E2
:10550000573CDDE74FF0FF37E6E7002F07DA2223AD
:105510007046C8F80030002AA4D0691E05E006B124
:105520004042002A9ED0002FF7D111609AE7302424
:10553000002BB5D10823B3E7302CA9D00A23AFE75D
:10554000A9840008FFF782BFF8B50E461446054649
:1055500018B183690BB901F047F8214B9C422BD15C
:105560006C68A369A360A3891A072FD523696BB35D
:1055700023692068F6B2C01A63693746834204DCA7
:105580002146284600F09CFF30BBA3680130013B58
:10559000A36023685A1C22601E706369834204D092
:1055A000A389DB0706D50A2E04D12146284600F040
:1055B00087FF88B93846F8BD0A4B9C4201D1AC68D8
:1055C000CFE7094B9C4208BFEC68CAE72146284652
:1055D00000F00CF80028CBD04FF0FF37EAE700BF0F
:1055E0005C8600087C8600083C860008324B70B55B
:1055F0001D6806460C4625B1AB6913B9284600F074
:10560000F3FF2E4B9C420FD16C68A389B4F90C2098
:1056100019072CD4DD0611D40923336042F040036E
:105620004FF0FF30A3813EE0254B9C4201D1AC6896
:10563000EBE7244B9C4208BFEC68E6E7580712D51D
:10564000616B41B104F14403994202D0304602F04B
:105650003DF900236363A38923F02403A38100237E
:10566000636023692360A38943F00803A38123694E
:105670004BB9A38903F42073B3F5007F03D021460F
:10568000304601F0E1FBA089B4F90C2010F00103D1
:105690000AD00023A36063695B42A361236943B915
:1056A00010F08000BAD170BD810758BF6369A36054
:1056B000F4E70020F7E700BF0C0000205C8600083C
:1056C0007C8600083C8600082DE9F74F03690C69C9
:1056D0000746A342C0F28280013C00F1140501F1AB
:1056E000140805EB8403019358F8243055F824205E
:1056F00001339A42B2FBF3F64FEA840B08EB8409BC
:1057000031D34FF0000E4046AC46F24650F8042B21
:1057100093B206FB03E3120C4FEA134E9BB206FB57
:1057200002E2AAEB0303DCF800A04FEA124E1FFAD4
:105730008AFA5344DCF800A092B2C2EB1A4202EBA0
:1057400023429BB243EA024381454FEA224A4CF886
:10575000043BDBD255F80B302BB9019B043B9D4237
:105760001A462FD33C61384601F0ACFE002825DBF9
:1057700028464FF0000C013658F8041BD0F800E022
:105780008BB2ACEB03031FFA8EF213440A0CC2EB8C
:105790001E4202EB23429BB243EA0243C1454FEA59
:1057A000224C40F8043BE7D255F8242005EB840353
:1057B00022B9043B9D421A460AD33C61304603B0ED
:1057C000BDE8F08F1268043B002ACBD1013CC6E74C
:1057D0001268043B002AF0D1013CEBE70020EEE721
:1057E0002DE9F04F16461F46446A99B00546CDE9AB
:1057F0000467DDF8948074B9102001F065FB02465F
:10580000686220B9EA21A84BA84802F07BFCC0E9F5
:1058100001440460C4606B6A196851B15A6801237D
:1058200093404A608B60284601F0C4FB00226B6AFB
:105830001A603B1EAFBF0023012223F000430593F3
:10584000A8BFC8F80030DDF81490994BB8BFC8F86D
:10585000002033EA090319D142F20F73249A13602E
:10586000C9F31303334300F07F85269B53B9914B53
:1058700022E0914B03930833269A1360039819B0E2
:10588000BDE8F08F8B4B03930333F5E7DDE9043478
:10589000CDE90C34DDE90C0100220023FBF784F88C
:1058A000804658B10123249A1360269B002B00F0F8
:1058B000588582481860431E0393DFE716AB0193B7
:1058C00017AB00932846DDE90C2301F01DFFC9F357
:1058D0000A548346002C7FD0DDE90C010D9BA4F215
:1058E000FF34C3F3130343F07F5141F44011CDF86B
:1058F0004C800022724BFAF737FC65A3D3E90023F2
:10590000FAF7EAFD64A3D3E90023FAF72FFC064671
:1059100020460F46FAF776FD61A3D3E90023FAF794
:10592000DBFD02460B4630463946FAF71FFC0646B9
:105930000F46FBF781F800228246002330463946A5
:10594000FBF73CF848B15046FAF75CFD32463B465F
:10595000FBF72AF808B90AF1FF3ABAF1160F58D83E
:10596000DDE90C01574B03EBCA03D3E90023FBF736
:1059700025F800284FD000230AF1FF3A0F93169B19
:105980001C1B631E099349BFC4F101030023069346
:10599000002354BF06930993BAF1000F3DDB099B26
:1059A000CDF838A05344099300230A93229B092B76
:1059B00000F28C80052BC4BF043B2293229BC8BFFE
:1059C0000024A3F10203D8BF0124032B00F28A8034
:1059D000DFE803F02D4F4D5BDDE916431C4404F274
:1059E0003243202BC3BFC3F1400304F2124009FA33
:1059F00003F3C3F12003C6BF26FA00F0184306FAEA
:105A000003F0FAF7EFFC0123A1F1F871013C1393C5
:105A10006FE70123B2E70F90B1E7069BA3EB0A0300
:105A20000693CAF100030A9300230E93BEE70023F6
:105A30000B93239B002B58DC4FF001094B46CDF80C
:105A40002090CDF88C900022686A4260042202F116
:105A500014069E4241684ED9284601F06BFA039025
:105A600000284CD102464FF4D571174BCCE60123E8
:105A7000DEE700230B93239B0AEB030909F10103E3
:105A8000012B0893B8BF0123DDE70123F2E700BF34
:105A900061436F63A787D23FB3C8608B288AC63F34
:105AA000FB799F501344D33FB6850008CD8500088D
:105AB0000000F07FB2850008A98500082D84000849
:105AC0000000F83FA0870008288600080124002372
:105AD0000B9422934FF0FF3900221223CDF820902F
